:020000040000FA
:100000000D280730A200A20B032808008207C13484
:10001000C534C934CD34D134080005303302031D52
:100020001228B30183120313A001A401A101A601A8
:10003000A901B001B101B201860189018316031340
:1000400088018701FF308600850080309F0083167D
:100050000317FF3088008901831203133308062039
:100060009F0001209F149F183328831203131E083A
:10007000A0008800831603131E0883120313A10037
:1000800087002F30A3002108C8002008A5004808D9
:10009000A10721080318A00A2508A0072008A30B20
:1000A0004728210820080A30A700A030A800013006
:1000B000A102031CA0022008210800302002031D19
:1000C000662800302102031D66288B28A60A260810
:1000D000692827082602031D57280630A607260888
:1000E0000F30A707A70AA0302602031D572860304B
:1000F000A6072608B00A0A303002031D8728B10A75
:10010000B0010A303102031D8728B20AB10130085C
:1001100031083208512832083108300826083030BA
:10012000B207B107B007A607320831083008260821
:100130009F01C520A120DA20B720861C9D28B30A84
:100140000D2856308800D72041308800D7204C3009
:100150008800D7204F308800D72052308800D72021
:100160003A308800D72020308800D7200800320895
:100170008800D7202C308800D72031088800D7206D
:1001800030088800D720E8200800071001308800D8
:10019000D1200C308800D1203C308800D1200714B9
:1001A00008008714DF20DF208710DF2008000714F5
:1001B000D120080007100C308800D1200800303012
:1001C000B500FF30B400B40BE328B50BE1280800FC
:1001D0000530B6000830B700FA30B8000000000063
:0E01E000B80BEE28B50BEC28B60BEA28080089
:0201EE000034DB
:0201F0000034D9
:02400E00F4209C
:02401000FF3E71
:00000001FF
